{
  "_format": "hh-sol-artifact-1",
  "contractName": "PasteToken",
  "sourceName": "contracts/PST.sol",
  "abi": [
    {
      "inputs": [],
      "stateMutability": "nonpayable",
      "type": "constructor"
    },
    {
      "inputs": [
        {
          "internalType": "uint256",
          "name": "increasedSupply",
          "type": "uint256"
        },
        {
          "internalType": "uint256",
          "name": "cap",
          "type": "uint256"
        }
      ],
      "name": "ERC20ExceededCap",
      "type": "error"
    },
    {
      "inputs": [
        {
          "internalType": "address",
          "name": "spender",
          "type": "address"
        },
        {
          "internalType": "uint256",
          "name": "allowance",
          "type": "uint256"
        },
        {
          "internalType": "uint256",
          "name": "needed",
          "type": "uint256"
        }
      ],
      "name": "ERC20InsufficientAllowance",
      "type": "error"
    },
    {
      "inputs": [
        {
          "internalType": "address",
          "name": "sender",
          "type": "address"
        },
        {
          "internalType": "uint256",
          "name": "balance",
          "type": "uint256"
        },
        {
          "internalType": "uint256",
          "name": "needed",
          "type": "uint256"
        }
      ],
      "name": "ERC20InsufficientBalance",
      "type": "error"
    },
    {
      "inputs": [
        {
          "internalType": "address",
          "name": "approver",
          "type": "address"
        }
      ],
      "name": "ERC20InvalidApprover",
      "type": "error"
    },
    {
      "inputs": [
        {
          "internalType": "uint256",
          "name": "cap",
          "type": "uint256"
        }
      ],
      "name": "ERC20InvalidCap",
      "type": "error"
    },
    {
      "inputs": [
        {
          "internalType": "address",
          "name": "receiver",
          "type": "address"
        }
      ],
      "name": "ERC20InvalidReceiver",
      "type": "error"
    },
    {
      "inputs": [
        {
          "internalType": "address",
          "name": "sender",
          "type": "address"
        }
      ],
      "name": "ERC20InvalidSender",
      "type": "error"
    },
    {
      "inputs": [
        {
          "internalType": "address",
          "name": "spender",
          "type": "address"
        }
      ],
      "name": "ERC20InvalidSpender",
      "type": "error"
    },
    {
      "inputs": [
        {
          "internalType": "address",
          "name": "owner",
          "type": "address"
        }
      ],
      "name": "OwnableInvalidOwner",
      "type": "error"
    },
    {
      "inputs": [
        {
          "internalType": "address",
          "name": "account",
          "type": "address"
        }
      ],
      "name": "OwnableUnauthorizedAccount",
      "type": "error"
    },
    {
      "anonymous": false,
      "inputs": [
        {
          "indexed": true,
          "internalType": "address",
          "name": "owner",
          "type": "address"
        },
        {
          "indexed": true,
          "internalType": "address",
          "name": "spender",
          "type": "address"
        },
        {
          "indexed": false,
          "internalType": "uint256",
          "name": "value",
          "type": "uint256"
        }
      ],
      "name": "Approval",
      "type": "event"
    },
    {
      "anonymous": false,
      "inputs": [
        {
          "indexed": true,
          "internalType": "address",
          "name": "previousOwner",
          "type": "address"
        },
        {
          "indexed": true,
          "internalType": "address",
          "name": "newOwner",
          "type": "address"
        }
      ],
      "name": "OwnershipTransferred",
      "type": "event"
    },
    {
      "anonymous": false,
      "inputs": [
        {
          "indexed": true,
          "internalType": "address",
          "name": "from",
          "type": "address"
        },
        {
          "indexed": true,
          "internalType": "address",
          "name": "to",
          "type": "address"
        },
        {
          "indexed": false,
          "internalType": "uint256",
          "name": "value",
          "type": "uint256"
        }
      ],
      "name": "Transfer",
      "type": "event"
    },
    {
      "inputs": [
        {
          "internalType": "address",
          "name": "owner",
          "type": "address"
        },
        {
          "internalType": "address",
          "name": "spender",
          "type": "address"
        }
      ],
      "name": "allowance",
      "outputs": [
        {
          "internalType": "uint256",
          "name": "",
          "type": "uint256"
        }
      ],
      "stateMutability": "view",
      "type": "function"
    },
    {
      "inputs": [
        {
          "internalType": "address",
          "name": "spender",
          "type": "address"
        },
        {
          "internalType": "uint256",
          "name": "value",
          "type": "uint256"
        }
      ],
      "name": "approve",
      "outputs": [
        {
          "internalType": "bool",
          "name": "",
          "type": "bool"
        }
      ],
      "stateMutability": "nonpayable",
      "type": "function"
    },
    {
      "inputs": [
        {
          "internalType": "address",
          "name": "account",
          "type": "address"
        }
      ],
      "name": "balanceOf",
      "outputs": [
        {
          "internalType": "uint256",
          "name": "",
          "type": "uint256"
        }
      ],
      "stateMutability": "view",
      "type": "function"
    },
    {
      "inputs": [],
      "name": "cap",
      "outputs": [
        {
          "internalType": "uint256",
          "name": "",
          "type": "uint256"
        }
      ],
      "stateMutability": "view",
      "type": "function"
    },
    {
      "inputs": [],
      "name": "decimals",
      "outputs": [
        {
          "internalType": "uint8",
          "name": "",
          "type": "uint8"
        }
      ],
      "stateMutability": "view",
      "type": "function"
    },
    {
      "inputs": [
        {
          "internalType": "address",
          "name": "to",
          "type": "address"
        },
        {
          "internalType": "uint256",
          "name": "amount",
          "type": "uint256"
        }
      ],
      "name": "mint",
      "outputs": [],
      "stateMutability": "nonpayable",
      "type": "function"
    },
    {
      "inputs": [],
      "name": "name",
      "outputs": [
        {
          "internalType": "string",
          "name": "",
          "type": "string"
        }
      ],
      "stateMutability": "view",
      "type": "function"
    },
    {
      "inputs": [],
      "name": "owner",
      "outputs": [
        {
          "internalType": "address",
          "name": "",
          "type": "address"
        }
      ],
      "stateMutability": "view",
      "type": "function"
    },
    {
      "inputs": [],
      "name": "renounceOwnership",
      "outputs": [],
      "stateMutability": "nonpayable",
      "type": "function"
    },
    {
      "inputs": [],
      "name": "symbol",
      "outputs": [
        {
          "internalType": "string",
          "name": "",
          "type": "string"
        }
      ],
      "stateMutability": "view",
      "type": "function"
    },
    {
      "inputs": [],
      "name": "totalSupply",
      "outputs": [
        {
          "internalType": "uint256",
          "name": "",
          "type": "uint256"
        }
      ],
      "stateMutability": "view",
      "type": "function"
    },
    {
      "inputs": [
        {
          "internalType": "address",
          "name": "to",
          "type": "address"
        },
        {
          "internalType": "uint256",
          "name": "value",
          "type": "uint256"
        }
      ],
      "name": "transfer",
      "outputs": [
        {
          "internalType": "bool",
          "name": "",
          "type": "bool"
        }
      ],
      "stateMutability": "nonpayable",
      "type": "function"
    },
    {
      "inputs": [
        {
          "internalType": "address",
          "name": "from",
          "type": "address"
        },
        {
          "internalType": "address",
          "name": "to",
          "type": "address"
        },
        {
          "internalType": "uint256",
          "name": "value",
          "type": "uint256"
        }
      ],
      "name": "transferFrom",
      "outputs": [
        {
          "internalType": "bool",
          "name": "",
          "type": "bool"
        }
      ],
      "stateMutability": "nonpayable",
      "type": "function"
    },
    {
      "inputs": [
        {
          "internalType": "address",
          "name": "newOwner",
          "type": "address"
        }
      ],
      "name": "transferOwnership",
      "outputs": [],
      "stateMutability": "nonpayable",
      "type": "function"
    },
    {
      "inputs": [
        {
          "internalType": "address",
          "name": "to",
          "type": "address"
        },
        {
          "internalType": "uint256",
          "name": "amount",
          "type": "uint256"
        }
      ],
      "name": "transferTokens",
      "outputs": [
        {
          "internalType": "bool",
          "name": "",
          "type": "bool"
        }
      ],
      "stateMutability": "nonpayable",
      "type": "function"
    }
  ],
  "bytecode": "0x60a06040523480156200001157600080fd5b503362000023620001d660201b60201c565b60ff16600a620000349190620007c5565b6298968062000044919062000816565b6040518060400160405280600a81526020017f5061737465546f6b656e000000000000000000000000000000000000000000008152506040518060400160405280600381526020017f50535400000000000000000000000000000000000000000000000000000000008152508160039081620000c1919062000ad1565b508060049081620000d3919062000ad1565b505050600081036200011f5760006040517f392e1e2700000000000000000000000000000000000000000000000000000000815260040162000116919062000bfb565b60405180910390fd5b806080818152505050600073ffffffffffffffffffffffffffffffffffffffff168173ffffffffffffffffffffffffffffffffffffffff16036200019d5760006040517f1e4fbdf700000000000000000000000000000000000000000000000000000000815260040162000194919062000c5d565b60405180910390fd5b620001ae81620001df60201b60201c565b50620001d033620001c4620002a560201b60201c565b620002af60201b60201c565b62000d4d565b60006012905090565b6000600560009054906101000a900473ffffffffffffffffffffffffffffffffffffffff16905081600560006101000a81548173ffffffffffffffffffffffffffffffffffffffff021916908373ffffffffffffffffffffffffffffffffffffffff1602179055508173ffffffffffffffffffffffffffffffffffffffff168173ffffffffffffffffffffffffffffffffffffffff167f8be0079c531659141344cd1fd0a4f28419497f9722a3daafe3b4186f6b6457e060405160405180910390a35050565b6000608051905090565b600073ffffffffffffffffffffffffffffffffffffffff168273ffffffffffffffffffffffffffffffffffffffff1603620003245760006040517fec442f050000000000000000000000000000000000000000000000000000000081526004016200031b919062000c5d565b60405180910390fd5b62000338600083836200033c60201b60201c565b5050565b6200034f838383620003fe60201b60201c565b600073ffffffffffffffffffffffffffffffffffffffff168373ffffffffffffffffffffffffffffffffffffffff1603620003f957600062000396620002a560201b60201c565b90506000620003aa6200062e60201b60201c565b905081811115620003f65780826040517f9e79f854000000000000000000000000000000000000000000000000000000008152600401620003ed92919062000c8b565b60405180910390fd5b50505b505050565b600073ffffffffffffffffffffffffffffffffffffffff168373ffffffffffffffffffffffffffffffffffffffff16036200045457806002600082825462000447919062000cb8565b925050819055506200052a565b60008060008573ffffffffffffffffffffffffffffffffffffffff1673ffffffffffffffffffffffffffffffffffffffff16815260200190815260200160002054905081811015620004e3578381836040517fe450d38c000000000000000000000000000000000000000000000000000000008152600401620004da9392919062000cf3565b60405180910390fd5b8181036000808673ffffffffffffffffffffffffffffffffffffffff1673ffffffffffffffffffffffffffffffffffffffff16815260200190815260200160002081905550505b600073ffffffffffffffffffffffffffffffffffffffff168273ffffffffffffffffffffffffffffffffffffffff1603620005755780600260008282540392505081905550620005c2565b806000808473ffffffffffffffffffffffffffffffffffffffff1673ffffffffffffffffffffffffffffffffffffffff168152602001908152602001600020600082825401925050819055505b8173ffffffffffffffffffffffffffffffffffffffff168373ffffffffffffffffffffffffffffffffffffffff167fddf252ad1be2c89b69c2b068fc378daa952ba7f163c4a11628f55a4df523b3ef8360405162000621919062000d30565b60405180910390a3505050565b6000600254905090565b7f4e487b7100000000000000000000000000000000000000000000000000000000600052601160045260246000fd5b60008160011c9050919050565b6000808291508390505b6001851115620006c6578086048111156200069e576200069d62000638565b5b6001851615620006ae5780820291505b8081029050620006be8562000667565b94506200067e565b94509492505050565b600082620006e15760019050620007b4565b81620006f15760009050620007b4565b81600181146200070a576002811462000715576200074b565b6001915050620007b4565b60ff8411156200072a576200072962000638565b5b8360020a91508482111562000744576200074362000638565b5b50620007b4565b5060208310610133831016604e8410600b8410161715620007855782820a9050838111156200077f576200077e62000638565b5b620007b4565b62000794848484600162000674565b92509050818404811115620007ae57620007ad62000638565b5b81810290505b9392505050565b6000819050919050565b6000620007d282620007bb565b9150620007df83620007bb565b92506200080e7fffffffffffffffffffffffffffffffffffffffffffffffffffffffffffffffff8484620006cf565b905092915050565b60006200082382620007bb565b91506200083083620007bb565b92508282026200084081620007bb565b915082820484148315176200085a576200085962000638565b5b5092915050565b600081519050919050565b7f4e487b7100000000000000000000000000000000000000000000000000000000600052604160045260246000fd5b7f4e487b7100000000000000000000000000000000000000000000000000000000600052602260045260246000fd5b60006002820490506001821680620008e357607f821691505b602082108103620008f957620008f86200089b565b5b50919050565b60008190508160005260206000209050919050565b60006020601f8301049050919050565b600082821b905092915050565b600060088302620009637fffffffffffffffffffffffffffffffffffffffffffffffffffffffffffffffff8262000924565b6200096f868362000924565b95508019841693508086168417925050509392505050565b6000819050919050565b6000620009b2620009ac620009a684620007bb565b62000987565b620007bb565b9050919050565b6000819050919050565b620009ce8362000991565b620009e6620009dd82620009b9565b84845462000931565b825550505050565b600090565b620009fd620009ee565b62000a0a818484620009c3565b505050565b5b8181101562000a325762000a26600082620009f3565b60018101905062000a10565b5050565b601f82111562000a815762000a4b81620008ff565b62000a568462000914565b8101602085101562000a66578190505b62000a7e62000a758562000914565b83018262000a0f565b50505b505050565b600082821c905092915050565b600062000aa66000198460080262000a86565b1980831691505092915050565b600062000ac1838362000a93565b9150826002028217905092915050565b62000adc8262000861565b67ffffffffffffffff81111562000af85762000af76200086c565b5b62000b048254620008ca565b62000b1182828562000a36565b600060209050601f83116001811462000b49576000841562000b34578287015190505b62000b40858262000ab3565b86555062000bb0565b601f19841662000b5986620008ff565b60005b8281101562000b835784890151825560018201915060208501945060208101905062000b5c565b8683101562000ba3578489015162000b9f601f89168262000a93565b8355505b6001600288020188555050505b505050505050565b6000819050919050565b600062000be362000bdd62000bd78462000bb8565b62000987565b620007bb565b9050919050565b62000bf58162000bc2565b82525050565b600060208201905062000c12600083018462000bea565b92915050565b600073ffffffffffffffffffffffffffffffffffffffff82169050919050565b600062000c458262000c18565b9050919050565b62000c578162000c38565b82525050565b600060208201905062000c74600083018462000c4c565b92915050565b62000c8581620007bb565b82525050565b600060408201905062000ca2600083018562000c7a565b62000cb1602083018462000c7a565b9392505050565b600062000cc582620007bb565b915062000cd283620007bb565b925082820190508082111562000ced5762000cec62000638565b5b92915050565b600060608201905062000d0a600083018662000c4c565b62000d19602083018562000c7a565b62000d28604083018462000c7a565b949350505050565b600060208201905062000d47600083018462000c7a565b92915050565b60805161131a62000d69600039600061040b015261131a6000f3fe608060405234801561001057600080fd5b50600436106100f55760003560e01c806370a0823111610097578063a9059cbb11610066578063a9059cbb14610264578063bec3fa1714610294578063dd62ed3e146102c4578063f2fde38b146102f4576100f5565b806370a08231146101ee578063715018a61461021e5780638da5cb5b1461022857806395d89b4114610246576100f5565b806323b872dd116100d357806323b872dd14610166578063313ce56714610196578063355274ea146101b457806340c10f19146101d2576100f5565b806306fdde03146100fa578063095ea7b31461011857806318160ddd14610148575b600080fd5b610102610310565b60405161010f9190610f45565b60405180910390f35b610132600480360381019061012d9190611000565b6103a2565b60405161013f919061105b565b60405180910390f35b6101506103c5565b60405161015d9190611085565b60405180910390f35b610180600480360381019061017b91906110a0565b6103cf565b60405161018d919061105b565b60405180910390f35b61019e6103fe565b6040516101ab919061110f565b60405180910390f35b6101bc610407565b6040516101c99190611085565b60405180910390f35b6101ec60048036038101906101e79190611000565b61042f565b005b6102086004803603810190610203919061112a565b610445565b6040516102159190611085565b60405180910390f35b61022661048d565b005b6102306104a1565b60405161023d9190611166565b60405180910390f35b61024e6104cb565b60405161025b9190610f45565b60405180910390f35b61027e60048036038101906102799190611000565b61055d565b60405161028b919061105b565b60405180910390f35b6102ae60048036038101906102a99190611000565b610580565b6040516102bb919061105b565b60405180910390f35b6102de60048036038101906102d99190611181565b610594565b6040516102eb9190611085565b60405180910390f35b61030e6004803603810190610309919061112a565b61061b565b005b60606003805461031f906111f0565b80601f016020809104026020016040519081016040528092919081815260200182805461034b906111f0565b80156103985780601f1061036d57610100808354040283529160200191610398565b820191906000526020600020905b81548152906001019060200180831161037b57829003601f168201915b5050505050905090565b6000806103ad6106a1565b90506103ba8185856106a9565b600191505092915050565b6000600254905090565b6000806103da6106a1565b90506103e78582856106bb565b6103f2858585610750565b60019150509392505050565b60006012905090565b60007f0000000000000000000000000000000000000000000000000000000000000000905090565b610437610844565b61044182826108cb565b5050565b60008060008373ffffffffffffffffffffffffffffffffffffffff1673ffffffffffffffffffffffffffffffffffffffff168152602001908152602001600020549050919050565b610495610844565b61049f600061094d565b565b6000600560009054906101000a900473ffffffffffffffffffffffffffffffffffffffff16905090565b6060600480546104da906111f0565b80601f0160208091040260200160405190810160405280929190818152602001828054610506906111f0565b80156105535780601f1061052857610100808354040283529160200191610553565b820191906000526020600020905b81548152906001019060200180831161053657829003601f168201915b5050505050905090565b6000806105686106a1565b9050610575818585610750565b600191505092915050565b600061058c838361055d565b905092915050565b6000600160008473ffffffffffffffffffffffffffffffffffffffff1673ffffffffffffffffffffffffffffffffffffffff16815260200190815260200160002060008373ffffffffffffffffffffffffffffffffffffffff1673ffffffffffffffffffffffffffffffffffffffff16815260200190815260200160002054905092915050565b610623610844565b600073ffffffffffffffffffffffffffffffffffffffff168173ffffffffffffffffffffffffffffffffffffffff16036106955760006040517f1e4fbdf700000000000000000000000000000000000000000000000000000000815260040161068c9190611166565b60405180910390fd5b61069e8161094d565b50565b600033905090565b6106b68383836001610a13565b505050565b60006106c78484610594565b90507fffffffffffffffffffffffffffffffffffffffffffffffffffffffffffffffff81101561074a578181101561073a578281836040517ffb8f41b200000000000000000000000000000000000000000000000000000000815260040161073193929190611221565b60405180910390fd5b61074984848484036000610a13565b5b50505050565b600073ffffffffffffffffffffffffffffffffffffffff168373ffffffffffffffffffffffffffffffffffffffff16036107c25760006040517f96c6fd1e0000000000000000000000000000000000000000000000000000000081526004016107b99190611166565b60405180910390fd5b600073ffffffffffffffffffffffffffffffffffffffff168273ffffffffffffffffffffffffffffffffffffffff16036108345760006040517fec442f0500000000000000000000000000000000000000000000000000000000815260040161082b9190611166565b60405180910390fd5b61083f838383610bea565b505050565b61084c6106a1565b73ffffffffffffffffffffffffffffffffffffffff1661086a6104a1565b73ffffffffffffffffffffffffffffffffffffffff16146108c95761088d6106a1565b6040517f118cdaa70000000000000000000000000000000000000000000000000000000081526004016108c09190611166565b60405180910390fd5b565b600073ffffffffffffffffffffffffffffffffffffffff168273ffffffffffffffffffffffffffffffffffffffff160361093d5760006040517fec442f050000000000000000000000000000000000000000000000000000000081526004016109349190611166565b60405180910390fd5b61094960008383610bea565b5050565b6000600560009054906101000a900473ffffffffffffffffffffffffffffffffffffffff16905081600560006101000a81548173ffffffffffffffffffffffffffffffffffffffff021916908373ffffffffffffffffffffffffffffffffffffffff1602179055508173ffffffffffffffffffffffffffffffffffffffff168173ffffffffffffffffffffffffffffffffffffffff167f8be0079c531659141344cd1fd0a4f28419497f9722a3daafe3b4186f6b6457e060405160405180910390a35050565b600073ffffffffffffffffffffffffffffffffffffffff168473ffffffffffffffffffffffffffffffffffffffff1603610a855760006040517fe602df05000000000000000000000000000000000000000000000000000000008152600401610a7c9190611166565b60405180910390fd5b600073ffffffffffffffffffffffffffffffffffffffff168373ffffffffffffffffffffffffffffffffffffffff1603610af75760006040517f94280d62000000000000000000000000000000000000000000000000000000008152600401610aee9190611166565b60405180910390fd5b81600160008673ffffffffffffffffffffffffffffffffffffffff1673ffffffffffffffffffffffffffffffffffffffff16815260200190815260200160002060008573ffffffffffffffffffffffffffffffffffffffff1673ffffffffffffffffffffffffffffffffffffffff168152602001908152602001600020819055508015610be4578273ffffffffffffffffffffffffffffffffffffffff168473ffffffffffffffffffffffffffffffffffffffff167f8c5be1e5ebec7d5bd14f71427d1e84f3dd0314c0f7b2291e5b200ac8c7c3b92584604051610bdb9190611085565b60405180910390a35b50505050565b610bf5838383610c90565b600073ffffffffffffffffffffffffffffffffffffffff168373ffffffffffffffffffffffffffffffffffffffff1603610c8b576000610c33610407565b90506000610c3f6103c5565b905081811115610c885780826040517f9e79f854000000000000000000000000000000000000000000000000000000008152600401610c7f929190611258565b60405180910390fd5b50505b505050565b600073ffffffffffffffffffffffffffffffffffffffff168373ffffffffffffffffffffffffffffffffffffffff1603610ce2578060026000828254610cd691906112b0565b92505081905550610db5565b60008060008573ffffffffffffffffffffffffffffffffffffffff1673ffffffffffffffffffffffffffffffffffffffff16815260200190815260200160002054905081811015610d6e578381836040517fe450d38c000000000000000000000000000000000000000000000000000000008152600401610d6593929190611221565b60405180910390fd5b8181036000808673ffffffffffffffffffffffffffffffffffffffff1673ffffffffffffffffffffffffffffffffffffffff16815260200190815260200160002081905550505b600073ffffffffffffffffffffffffffffffffffffffff168273ffffffffffffffffffffffffffffffffffffffff1603610dfe5780600260008282540392505081905550610e4b565b806000808473ffffffffffffffffffffffffffffffffffffffff1673ffffffffffffffffffffffffffffffffffffffff168152602001908152602001600020600082825401925050819055505b8173ffffffffffffffffffffffffffffffffffffffff168373ffffffffffffffffffffffffffffffffffffffff167fddf252ad1be2c89b69c2b068fc378daa952ba7f163c4a11628f55a4df523b3ef83604051610ea89190611085565b60405180910390a3505050565b600081519050919050565b600082825260208201905092915050565b60005b83811015610eef578082015181840152602081019050610ed4565b60008484015250505050565b6000601f19601f8301169050919050565b6000610f1782610eb5565b610f218185610ec0565b9350610f31818560208601610ed1565b610f3a81610efb565b840191505092915050565b60006020820190508181036000830152610f5f8184610f0c565b905092915050565b600080fd5b600073ffffffffffffffffffffffffffffffffffffffff82169050919050565b6000610f9782610f6c565b9050919050565b610fa781610f8c565b8114610fb257600080fd5b50565b600081359050610fc481610f9e565b92915050565b6000819050919050565b610fdd81610fca565b8114610fe857600080fd5b50565b600081359050610ffa81610fd4565b92915050565b6000806040838503121561101757611016610f67565b5b600061102585828601610fb5565b925050602061103685828601610feb565b9150509250929050565b60008115159050919050565b61105581611040565b82525050565b6000602082019050611070600083018461104c565b92915050565b61107f81610fca565b82525050565b600060208201905061109a6000830184611076565b92915050565b6000806000606084860312156110b9576110b8610f67565b5b60006110c786828701610fb5565b93505060206110d886828701610fb5565b92505060406110e986828701610feb565b9150509250925092565b600060ff82169050919050565b611109816110f3565b82525050565b60006020820190506111246000830184611100565b92915050565b6000602082840312156111405761113f610f67565b5b600061114e84828501610fb5565b91505092915050565b61116081610f8c565b82525050565b600060208201905061117b6000830184611157565b92915050565b6000806040838503121561119857611197610f67565b5b60006111a685828601610fb5565b92505060206111b785828601610fb5565b9150509250929050565b7f4e487b7100000000000000000000000000000000000000000000000000000000600052602260045260246000fd5b6000600282049050600182168061120857607f821691505b60208210810361121b5761121a6111c1565b5b50919050565b60006060820190506112366000830186611157565b6112436020830185611076565b6112506040830184611076565b949350505050565b600060408201905061126d6000830185611076565b61127a6020830184611076565b9392505050565b7f4e487b7100000000000000000000000000000000000000000000000000000000600052601160045260246000fd5b60006112bb82610fca565b91506112c683610fca565b92508282019050808211156112de576112dd611281565b5b9291505056fea26469706673582212206d9fe9c51bf19c79facdc98271d8ad3d5d4d875d6a3675641eeb7ddccd4b4df564736f6c63430008140033",
  "linkReferences": {},
  "deployedLinkReferences": {}
}